{
  "_format": "hh-sol-artifact-1",
  "contractName": "AddToCart",
  "sourceName": "contracts/AddToCart.sol",
  "abi": [
    {
      "inputs": [
        {
          "internalType": "string",
          "name": "_item",
          "type": "string"
        }
      ],
      "name": "addItem",
      "outputs": [],
      "stateMutability": "nonpayable",
      "type": "function"
    },
    {
      "inputs": [
        {
          "internalType": "uint256",
          "name": "",
          "type": "uint256"
        }
      ],
      "name": "cart",
      "outputs": [
        {
          "internalType": "string",
          "name": "",
          "type": "string"
        }
      ],
      "stateMutability": "view",
      "type": "function"
    },
    {
      "inputs": [],
      "name": "deleteLastItem",
      "outputs": [],
      "stateMutability": "nonpayable",
      "type": "function"
    },
    {
      "inputs": [],
      "name": "getCart",
      "outputs": [
        {
          "internalType": "string[]",
          "name": "",
          "type": "string[]"
        }
      ],
      "stateMutability": "view",
      "type": "function"
    }
  ],
  "bytecode": "0x608060405234801561001057600080fd5b50610a6d806100206000396000f3fe608060405234801561001057600080fd5b506004361061004c5760003560e01c80631d586f7c1461005157806321627dad1461008157806327e9f2941461009f57806387e03165146100bb575b600080fd5b61006b60048036038101906100669190610370565b6100c5565b604051610078919061042d565b60405180910390f35b610089610171565b604051610096919061055b565b60405180910390f35b6100b960048036038101906100b491906106b2565b61024a565b005b6100c3610282565b005b600081815481106100d557600080fd5b9060005260206000200160009150905080546100f09061072a565b80601f016020809104026020016040519081016040528092919081815260200182805461011c9061072a565b80156101695780601f1061013e57610100808354040283529160200191610169565b820191906000526020600020905b81548152906001019060200180831161014c57829003601f168201915b505050505081565b60606000805480602002602001604051908101604052809291908181526020016000905b828210156102415783829060005260206000200180546101b49061072a565b80601f01602080910402602001604051908101604052809291908181526020018280546101e09061072a565b801561022d5780601f106102025761010080835404028352916020019161022d565b820191906000526020600020905b81548152906001019060200180831161021057829003601f168201915b505050505081526020019060010190610195565b50505050905090565b60008190806001815401808255809150506001900390600052602060002001600090919091909150908161027e9190610907565b5050565b6000808054905011610297576102966109d9565b5b60008054806102a9576102a8610a08565b5b6001900381819060005260206000200160006102c591906102c9565b9055565b5080546102d59061072a565b6000825580601f106102e75750610306565b601f0160209004906000526020600020908101906103059190610309565b5b50565b5b8082111561032257600081600090555060010161030a565b5090565b6000604051905090565b600080fd5b600080fd5b6000819050919050565b61034d8161033a565b811461035857600080fd5b50565b60008135905061036a81610344565b92915050565b60006020828403121561038657610385610330565b5b60006103948482850161035b565b91505092915050565b600081519050919050565b600082825260208201905092915050565b60005b838110156103d75780820151818401526020810190506103bc565b60008484015250505050565b6000601f19601f8301169050919050565b60006103ff8261039d565b61040981856103a8565b93506104198185602086016103b9565b610422816103e3565b840191505092915050565b6000602082019050818103600083015261044781846103f4565b905092915050565b600081519050919050565b600082825260208201905092915050565b6000819050602082019050919050565b600082825260208201905092915050565b60006104978261039d565b6104a1818561047b565b93506104b18185602086016103b9565b6104ba816103e3565b840191505092915050565b60006104d1838361048c565b905092915050565b6000602082019050919050565b60006104f18261044f565b6104fb818561045a565b93508360208202850161050d8561046b565b8060005b85811015610549578484038952815161052a85826104c5565b9450610535836104d9565b925060208a01995050600181019050610511565b50829750879550505050505092915050565b6000602082019050818103600083015261057581846104e6565b905092915050565b600080fd5b600080fd5b7f4e487b7100000000000000000000000000000000000000000000000000000000600052604160045260246000fd5b6105bf826103e3565b810181811067ffffffffffffffff821117156105de576105dd610587565b5b80604052505050565b60006105f1610326565b90506105fd82826105b6565b919050565b600067ffffffffffffffff82111561061d5761061c610587565b5b610626826103e3565b9050602081019050919050565b82818337600083830152505050565b600061065561065084610602565b6105e7565b90508281526020810184848401111561067157610670610582565b5b61067c848285610633565b509392505050565b600082601f8301126106995761069861057d565b5b81356106a9848260208601610642565b91505092915050565b6000602082840312156106c8576106c7610330565b5b600082013567ffffffffffffffff8111156106e6576106e5610335565b5b6106f284828501610684565b91505092915050565b7f4e487b7100000000000000000000000000000000000000000000000000000000600052602260045260246000fd5b6000600282049050600182168061074257607f821691505b602082108103610755576107546106fb565b5b50919050565b60008190508160005260206000209050919050565b60006020601f8301049050919050565b600082821b905092915050565b6000600883026107bd7fffffffffffffffffffffffffffffffffffffffffffffffffffffffffffffffff82610780565b6107c78683610780565b95508019841693508086168417925050509392505050565b6000819050919050565b60006108046107ff6107fa8461033a565b6107df565b61033a565b9050919050565b6000819050919050565b61081e836107e9565b61083261082a8261080b565b84845461078d565b825550505050565b600090565b61084761083a565b610852818484610815565b505050565b5b818110156108765761086b60008261083f565b600181019050610858565b5050565b601f8211156108bb5761088c8161075b565b61089584610770565b810160208510156108a4578190505b6108b86108b085610770565b830182610857565b50505b505050565b600082821c905092915050565b60006108de600019846008026108c0565b1980831691505092915050565b60006108f783836108cd565b9150826002028217905092915050565b6109108261039d565b67ffffffffffffffff81111561092957610928610587565b5b610933825461072a565b61093e82828561087a565b600060209050601f831160018114610971576000841561095f578287015190505b61096985826108eb565b8655506109d1565b601f19841661097f8661075b565b60005b828110156109a757848901518255600182019150602085019450602081019050610982565b868310156109c457848901516109c0601f8916826108cd565b8355505b6001600288020188555050505b505050505050565b7f4e487b7100000000000000000000000000000000000000000000000000000000600052600160045260246000fd5b7f4e487b7100000000000000000000000000000000000000000000000000000000600052603160045260246000fdfea2646970667358221220d55b14ea2a37c8201273d5e4e5f0e1fc64ba3ede566bf5a93db12993a0ee5fa464736f6c63430008120033",
  "linkReferences": {},
  "deployedLinkReferences": {}
}